{
  "_format": "hh-sol-artifact-1",
  "contractName": "Create",
  "sourceName": "contracts/VotingContract.sol",
  "abi": [
    {
      "inputs": [],
      "stateMutability": "nonpayable",
      "type": "constructor"
    },
    {
      "anonymous": false,
      "inputs": [
        {
          "indexed": true,
          "internalType": "uint256",
          "name": "candidateId",
          "type": "uint256"
        },
        {
          "indexed": false,
          "internalType": "uint256",
          "name": "age",
          "type": "uint256"
        },
        {
          "indexed": false,
          "internalType": "string",
          "name": "name",
          "type": "string"
        },
        {
          "indexed": false,
          "internalType": "string",
          "name": "image",
          "type": "string"
        },
        {
          "indexed": false,
          "internalType": "uint256",
          "name": "voteCount",
          "type": "uint256"
        },
        {
          "indexed": false,
          "internalType": "address",
          "name": "_address",
          "type": "address"
        },
        {
          "indexed": false,
          "internalType": "string",
          "name": "ipfs",
          "type": "string"
        }
      ],
      "name": "CandidateCreate",
      "type": "event"
    },
    {
      "anonymous": false,
      "inputs": [
        {
          "indexed": true,
          "internalType": "uint256",
          "name": "voter_voterId",
          "type": "uint256"
        },
        {
          "indexed": false,
          "internalType": "string",
          "name": "voter_name",
          "type": "string"
        },
        {
          "indexed": false,
          "internalType": "string",
          "name": "voter_image",
          "type": "string"
        },
        {
          "indexed": false,
          "internalType": "address",
          "name": "voter_address",
          "type": "address"
        },
        {
          "indexed": false,
          "internalType": "uint256",
          "name": "voter_allowed",
          "type": "uint256"
        },
        {
          "indexed": false,
          "internalType": "bool",
          "name": "voter_voted",
          "type": "bool"
        },
        {
          "indexed": false,
          "internalType": "uint256",
          "name": "voter_vote",
          "type": "uint256"
        },
        {
          "indexed": false,
          "internalType": "string",
          "name": "voter_ipfs",
          "type": "string"
        }
      ],
      "name": "VoterCreate",
      "type": "event"
    },
    {
      "inputs": [],
      "name": "_candidateId",
      "outputs": [
        {
          "internalType": "uint256",
          "name": "_value",
          "type": "uint256"
        }
      ],
      "stateMutability": "view",
      "type": "function"
    },
    {
      "inputs": [],
      "name": "_voterId",
      "outputs": [
        {
          "internalType": "uint256",
          "name": "_value",
          "type": "uint256"
        }
      ],
      "stateMutability": "view",
      "type": "function"
    },
    {
      "inputs": [
        {
          "internalType": "uint256",
          "name": "",
          "type": "uint256"
        }
      ],
      "name": "candidateAddress",
      "outputs": [
        {
          "internalType": "address",
          "name": "",
          "type": "address"
        }
      ],
      "stateMutability": "view",
      "type": "function"
    },
    {
      "inputs": [
        {
          "internalType": "address",
          "name": "",
          "type": "address"
        }
      ],
      "name": "candidatesRegister",
      "outputs": [
        {
          "internalType": "uint256",
          "name": "candidateId",
          "type": "uint256"
        },
        {
          "internalType": "uint256",
          "name": "age",
          "type": "uint256"
        },
        {
          "internalType": "string",
          "name": "name",
          "type": "string"
        },
        {
          "internalType": "string",
          "name": "image",
          "type": "string"
        },
        {
          "internalType": "uint256",
          "name": "voteCount",
          "type": "uint256"
        },
        {
          "internalType": "address",
          "name": "_address",
          "type": "address"
        },
        {
          "internalType": "string",
          "name": "ipfs",
          "type": "string"
        }
      ],
      "stateMutability": "view",
      "type": "function"
    },
    {
      "inputs": [
        {
          "internalType": "address",
          "name": "_candidateAddr",
          "type": "address"
        },
        {
          "internalType": "uint256",
          "name": "_candidatesId",
          "type": "uint256"
        }
      ],
      "name": "doVote",
      "outputs": [],
      "stateMutability": "nonpayable",
      "type": "function"
    },
    {
      "inputs": [
        {
          "internalType": "address",
          "name": "_address",
          "type": "address"
        }
      ],
      "name": "getCandidateData",
      "outputs": [
        {
          "internalType": "string",
          "name": "",
          "type": "string"
        },
        {
          "internalType": "string",
          "name": "",
          "type": "string"
        },
        {
          "internalType": "uint256",
          "name": "",
          "type": "uint256"
        },
        {
          "internalType": "uint256",
          "name": "",
          "type": "uint256"
        },
        {
          "internalType": "uint256",
          "name": "",
          "type": "uint256"
        },
        {
          "internalType": "string",
          "name": "",
          "type": "string"
        },
        {
          "internalType": "address",
          "name": "",
          "type": "address"
        }
      ],
      "stateMutability": "view",
      "type": "function"
    },
    {
      "inputs": [],
      "name": "getCandidateLength",
      "outputs": [
        {
          "internalType": "uint256",
          "name": "",
          "type": "uint256"
        }
      ],
      "stateMutability": "view",
      "type": "function"
    },
    {
      "inputs": [],
      "name": "getCandidates",
      "outputs": [
        {
          "internalType": "address[]",
          "name": "",
          "type": "address[]"
        }
      ],
      "stateMutability": "view",
      "type": "function"
    },
    {
      "inputs": [
        {
          "internalType": "address",
          "name": "_address",
          "type": "address"
        }
      ],
      "name": "getVoterDatea",
      "outputs": [
        {
          "internalType": "uint256",
          "name": "",
          "type": "uint256"
        },
        {
          "internalType": "string",
          "name": "",
          "type": "string"
        },
        {
          "internalType": "string",
          "name": "",
          "type": "string"
        },
        {
          "internalType": "address",
          "name": "",
          "type": "address"
        },
        {
          "internalType": "bool",
          "name": "",
          "type": "bool"
        },
        {
          "internalType": "uint256",
          "name": "",
          "type": "uint256"
        },
        {
          "internalType": "string",
          "name": "",
          "type": "string"
        }
      ],
      "stateMutability": "view",
      "type": "function"
    },
    {
      "inputs": [],
      "name": "getVoterList",
      "outputs": [
        {
          "internalType": "address[]",
          "name": "",
          "type": "address[]"
        }
      ],
      "stateMutability": "view",
      "type": "function"
    },
    {
      "inputs": [],
      "name": "getvoterLength",
      "outputs": [
        {
          "internalType": "uint256",
          "name": "",
          "type": "uint256"
        }
      ],
      "stateMutability": "view",
      "type": "function"
    },
    {
      "inputs": [
        {
          "internalType": "address",
          "name": "_address",
          "type": "address"
        },
        {
          "internalType": "string",
          "name": "_name",
          "type": "string"
        },
        {
          "internalType": "uint256",
          "name": "_age",
          "type": "uint256"
        },
        {
          "internalType": "string",
          "name": "_image",
          "type": "string"
        },
        {
          "internalType": "string",
          "name": "_ipfs",
          "type": "string"
        }
      ],
      "name": "setCandidate",
      "outputs": [],
      "stateMutability": "nonpayable",
      "type": "function"
    },
    {
      "inputs": [
        {
          "internalType": "uint256",
          "name": "",
          "type": "uint256"
        }
      ],
      "name": "votedVoters",
      "outputs": [
        {
          "internalType": "address",
          "name": "",
          "type": "address"
        }
      ],
      "stateMutability": "view",
      "type": "function"
    },
    {
      "inputs": [
        {
          "internalType": "address",
          "name": "",
          "type": "address"
        }
      ],
      "name": "voterRegister",
      "outputs": [
        {
          "internalType": "uint256",
          "name": "voter_voterId",
          "type": "uint256"
        },
        {
          "internalType": "string",
          "name": "voter_name",
          "type": "string"
        },
        {
          "internalType": "string",
          "name": "voter_image",
          "type": "string"
        },
        {
          "internalType": "address",
          "name": "voter_address",
          "type": "address"
        },
        {
          "internalType": "uint256",
          "name": "voter_allowed",
          "type": "uint256"
        },
        {
          "internalType": "bool",
          "name": "voter_voted",
          "type": "bool"
        },
        {
          "internalType": "uint256",
          "name": "voter_vote",
          "type": "uint256"
        },
        {
          "internalType": "string",
          "name": "voter_ipfs",
          "type": "string"
        }
      ],
      "stateMutability": "view",
      "type": "function"
    },
    {
      "inputs": [
        {
          "internalType": "address",
          "name": "_address",
          "type": "address"
        },
        {
          "internalType": "string",
          "name": "_name",
          "type": "string"
        },
        {
          "internalType": "string",
          "name": "_image",
          "type": "string"
        },
        {
          "internalType": "string",
          "name": "_ipfs",
          "type": "string"
        }
      ],
      "name": "voterRight",
      "outputs": [],
      "stateMutability": "nonpayable",
      "type": "function"
    },
    {
      "inputs": [
        {
          "internalType": "uint256",
          "name": "",
          "type": "uint256"
        }
      ],
      "name": "votersAddress",
      "outputs": [
        {
          "internalType": "address",
          "name": "",
          "type": "address"
        }
      ],
      "stateMutability": "view",
      "type": "function"
    },
    {
      "inputs": [],
      "name": "votingOrganizer",
      "outputs": [
        {
          "internalType": "address",
          "name": "",
          "type": "address"
        }
      ],
      "stateMutability": "view",
      "type": "function"
    }
  ],
  "bytecode": "0x608060405234801561001057600080fd5b5033600260006101000a81548173ffffffffffffffffffffffffffffffffffffffff021916908373ffffffffffffffffffffffffffffffffffffffff1602179055506124ae806100616000396000f3fe608060405234801561001057600080fd5b506004361061010b5760003560e01c80635cc48aa7116100a2578063af15408711610071578063af154087146102d8578063b28d92ae1461030f578063b9be31521461032d578063f06831911461034b578063f7522a83146103815761010b565b80635cc48aa7146102505780637831ffb31461026e578063a73889671461029e578063aa092c48146102bc5761010b565b80633a323e68116100de5780633a323e68146101b65780633a88251a146101d257806343242daa14610202578063568786b5146102325761010b565b80630361419e146101105780630592c60b1461012c57806306a49fce146101625780632a466ac714610180575b600080fd5b61012a60048036038101906101259190611a72565b61039f565b005b61014660048036038101906101419190611b2d565b61062c565b6040516101599796959493929190611c25565b60405180910390f35b61016a6109f4565b6040516101779190611d67565b60405180910390f35b61019a60048036038101906101959190611b2d565b610a82565b6040516101ad9796959493929190611d89565b60405180910390f35b6101d060048036038101906101cb9190611e39565b610e3d565b005b6101ec60048036038101906101e79190611e79565b611002565b6040516101f99190611ea6565b60405180910390f35b61021c60048036038101906102179190611e79565b611041565b6040516102299190611ea6565b60405180910390f35b61023a611080565b6040516102479190611ec1565b60405180910390f35b61025861108d565b6040516102659190611ea6565b60405180910390f35b61028860048036038101906102839190611e79565b6110b3565b6040516102959190611ea6565b60405180910390f35b6102a66110f2565b6040516102b39190611ec1565b60405180910390f35b6102d660048036038101906102d19190611edc565b6110fe565b005b6102f260048036038101906102ed9190611b2d565b611345565b604051610306989796959493929190611fab565b60405180910390f35b610317611552565b6040516103249190611d67565b60405180910390f35b6103356115e0565b6040516103429190611ec1565b60405180910390f35b61036560048036038101906103609190611b2d565b6115ec565b604051610378979695949392919061203e565b60405180910390f35b6103896117e6565b6040516103969190611ec1565b60405180910390f35b3373ffffffffffffffffffffffffffffffffffffffff16600260009054906101000a900473ffffffffffffffffffffffffffffffffffffffff1673ffffffffffffffffffffffffffffffffffffffff161461042f576040517f08c379a00000000000000000000000000000000000000000000000000000000081526004016104269061210e565b60405180910390fd5b61043960006117f3565b60006104456000611809565b90506000600760008773ffffffffffffffffffffffffffffffffffffffff1673ffffffffffffffffffffffffffffffffffffffff1681526020019081526020016000209050600081600401541461049b57600080fd5b858160030160006101000a81548173ffffffffffffffffffffffffffffffffffffffff021916908373ffffffffffffffffffffffffffffffffffffffff1602179055506001816004018190555083816002019080519060200190610500929190611817565b5082816007019080519060200190610519929190611817565b5084816001019080519060200190610532929190611817565b5060008160050160006101000a81548160ff0219169083151502179055508181600001819055506103e881600601819055506006869080600181540180825580915050600190039060005260206000200160009091909190916101000a81548173ffffffffffffffffffffffffffffffffffffffff021916908373ffffffffffffffffffffffffffffffffffffffff160217905550817f0d1b980df89c1a3954567752ee1e92bdf546b205af1cc94b471ae6e71b8f859c86868985600401548660050160009054906101000a900460ff1687600601548a60405161061c979695949392919061212e565b60405180910390a2505050505050565b600060608060008060006060600760008973ffffffffffffffffffffffffffffffffffffffff1673ffffffffffffffffffffffffffffffffffffffff16815260200190815260200160002060000154600760008a73ffffffffffffffffffffffffffffffffffffffff1673ffffffffffffffffffffffffffffffffffffffff168152602001908152602001600020600101600760008b73ffffffffffffffffffffffffffffffffffffffff1673ffffffffffffffffffffffffffffffffffffffff168152602001908152602001600020600201600760008c73ffffffffffffffffffffffffffffffffffffffff1673ffffffffffffffffffffffffffffffffffffffff16815260200190815260200160002060030160009054906101000a900473ffffffffffffffffffffffffffffffffffffffff16600760008d73ffffffffffffffffffffffffffffffffffffffff1673ffffffffffffffffffffffffffffffffffffffff16815260200190815260200160002060050160009054906101000a900460ff16600760008e73ffffffffffffffffffffffffffffffffffffffff1673ffffffffffffffffffffffffffffffffffffffff16815260200190815260200160002060060154600760008f73ffffffffffffffffffffffffffffffffffffffff1673ffffffffffffffffffffffffffffffffffffffff168152602001908152602001600020600701858054610843906121e1565b80601f016020809104026020016040519081016040528092919081815260200182805461086f906121e1565b80156108bc5780601f10610891576101008083540402835291602001916108bc565b820191906000526020600020905b81548152906001019060200180831161089f57829003601f168201915b505050505095508480546108cf906121e1565b80601f01602080910402602001604051908101604052809291908181526020018280546108fb906121e1565b80156109485780601f1061091d57610100808354040283529160200191610948565b820191906000526020600020905b81548152906001019060200180831161092b57829003601f168201915b5050505050945080805461095b906121e1565b80601f0160208091040260200160405190810160405280929190818152602001828054610987906121e1565b80156109d45780601f106109a9576101008083540402835291602001916109d4565b820191906000526020600020905b8154815290600101906020018083116109b757829003601f168201915b505050505090509650965096509650965096509650919395979092949650565b60606003805480602002602001604051908101604052809291908181526020018280548015610a7857602002820191906000526020600020905b8160009054906101000a900473ffffffffffffffffffffffffffffffffffffffff1673ffffffffffffffffffffffffffffffffffffffff1681526020019060010190808311610a2e575b5050505050905090565b606080600080600060606000600460008973ffffffffffffffffffffffffffffffffffffffff1673ffffffffffffffffffffffffffffffffffffffff168152602001908152602001600020600201600460008a73ffffffffffffffffffffffffffffffffffffffff1673ffffffffffffffffffffffffffffffffffffffff168152602001908152602001600020600301600460008b73ffffffffffffffffffffffffffffffffffffffff1673ffffffffffffffffffffffffffffffffffffffff16815260200190815260200160002060040154600460008c73ffffffffffffffffffffffffffffffffffffffff1673ffffffffffffffffffffffffffffffffffffffff16815260200190815260200160002060010154600460008d73ffffffffffffffffffffffffffffffffffffffff1673ffffffffffffffffffffffffffffffffffffffff16815260200190815260200160002060000154600460008e73ffffffffffffffffffffffffffffffffffffffff1673ffffffffffffffffffffffffffffffffffffffff168152602001908152602001600020600601600460008f73ffffffffffffffffffffffffffffffffffffffff1673ffffffffffffffffffffffffffffffffffffffff16815260200190815260200160002060050160009054906101000a900473ffffffffffffffffffffffffffffffffffffffff16868054610c8c906121e1565b80601f0160208091040260200160405190810160405280929190818152602001828054610cb8906121e1565b8015610d055780601f10610cda57610100808354040283529160200191610d05565b820191906000526020600020905b815481529060010190602001808311610ce857829003601f168201915b50505050509650858054610d18906121e1565b80601f0160208091040260200160405190810160405280929190818152602001828054610d44906121e1565b8015610d915780601f10610d6657610100808354040283529160200191610d91565b820191906000526020600020905b815481529060010190602001808311610d7457829003601f168201915b50505050509550818054610da4906121e1565b80601f0160208091040260200160405190810160405280929190818152602001828054610dd0906121e1565b8015610e1d5780601f10610df257610100808354040283529160200191610e1d565b820191906000526020600020905b815481529060010190602001808311610e0057829003601f168201915b505050505091509650965096509650965096509650919395979092949650565b6000600760003373ffffffffffffffffffffffffffffffffffffffff1673ffffffffffffffffffffffffffffffffffffffff16815260200190815260200160002090508060050160009054906101000a900460ff1615610ed2576040517f08c379a0000000000000000000000000000000000000000000000000000000008152600401610ec99061225f565b60405180910390fd5b600081600401541415610f1a576040517f08c379a0000000000000000000000000000000000000000000000000000000008152600401610f11906122cb565b60405180910390fd5b60018160050160006101000a81548160ff0219169083151502179055508181600601819055506005339080600181540180825580915050600190039060005260206000200160009091909190916101000a81548173ffffffffffffffffffffffffffffffffffffffff021916908373ffffffffffffffffffffffffffffffffffffffff1602179055506001600460008573ffffffffffffffffffffffffffffffffffffffff1673ffffffffffffffffffffffffffffffffffffffff1681526020019081526020016000206004016000828254610ff6919061231a565b92505081905550505050565b6003818154811061101257600080fd5b906000526020600020016000915054906101000a900473ffffffffffffffffffffffffffffffffffffffff1681565b6006818154811061105157600080fd5b906000526020600020016000915054906101000a900473ffffffffffffffffffffffffffffffffffffffff1681565b6000600680549050905090565b600260009054906101000a900473ffffffffffffffffffffffffffffffffffffffff1681565b600581815481106110c357600080fd5b906000526020600020016000915054906101000a900473ffffffffffffffffffffffffffffffffffffffff1681565b60018060000154905081565b3373ffffffffffffffffffffffffffffffffffffffff16600260009054906101000a900473ffffffffffffffffffffffffffffffffffffffff1673ffffffffffffffffffffffffffffffffffffffff161461118e576040517f08c379a0000000000000000000000000000000000000000000000000000000008152600401611185906123e2565b60405180910390fd5b61119860016117f3565b60006111a46001611809565b90506000600460008873ffffffffffffffffffffffffffffffffffffffff1673ffffffffffffffffffffffffffffffffffffffff16815260200190815260200160002090508481600101819055508581600201908051906020019061120a929190611817565b5083816003019080519060200190611223929190611817565b508281600601908051906020019061123c929190611817565b5081816000018190555060008160040181905550868160050160006101000a81548173ffffffffffffffffffffffffffffffffffffffff021916908373ffffffffffffffffffffffffffffffffffffffff1602179055506003879080600181540180825580915050600190039060005260206000200160009091909190916101000a81548173ffffffffffffffffffffffffffffffffffffffff021916908373ffffffffffffffffffffffffffffffffffffffff160217905550817fa0bb2859e614d6df5a180bd5c06e70c2f058288ebf559a5751e8865cda8654c986888785600401548c8960405161133496959493929190612402565b60405180910390a250505050505050565b600760205280600052604060002060009150905080600001549080600101805461136e906121e1565b80601f016020809104026020016040519081016040528092919081815260200182805461139a906121e1565b80156113e75780601f106113bc576101008083540402835291602001916113e7565b820191906000526020600020905b8154815290600101906020018083116113ca57829003601f168201915b5050505050908060020180546113fc906121e1565b80601f0160208091040260200160405190810160405280929190818152602001828054611428906121e1565b80156114755780601f1061144a57610100808354040283529160200191611475565b820191906000526020600020905b81548152906001019060200180831161145857829003601f168201915b5050505050908060030160009054906101000a900473ffffffffffffffffffffffffffffffffffffffff16908060040154908060050160009054906101000a900460ff16908060060154908060070180546114cf906121e1565b80601f01602080910402602001604051908101604052809291908181526020018280546114fb906121e1565b80156115485780601f1061151d57610100808354040283529160200191611548565b820191906000526020600020905b81548152906001019060200180831161152b57829003601f168201915b5050505050905088565b606060068054806020026020016040519081016040528092919081815260200182805480156115d657602002820191906000526020600020905b8160009054906101000a900473ffffffffffffffffffffffffffffffffffffffff1673ffffffffffffffffffffffffffffffffffffffff168152602001906001019080831161158c575b5050505050905090565b60008060000154905081565b600460205280600052604060002060009150905080600001549080600101549080600201805461161b906121e1565b80601f0160208091040260200160405190810160405280929190818152602001828054611647906121e1565b80156116945780601f1061166957610100808354040283529160200191611694565b820191906000526020600020905b81548152906001019060200180831161167757829003601f168201915b5050505050908060030180546116a9906121e1565b80601f01602080910402602001604051908101604052809291908181526020018280546116d5906121e1565b80156117225780601f106116f757610100808354040283529160200191611722565b820191906000526020600020905b81548152906001019060200180831161170557829003601f168201915b5050505050908060040154908060050160009054906101000a900473ffffffffffffffffffffffffffffffffffffffff1690806006018054611763906121e1565b80601f016020809104026020016040519081016040528092919081815260200182805461178f906121e1565b80156117dc5780601f106117b1576101008083540402835291602001916117dc565b820191906000526020600020905b8154815290600101906020018083116117bf57829003601f168201915b5050505050905087565b6000600380549050905090565b6001816000016000828254019250508190555050565b600081600001549050919050565b828054611823906121e1565b90600052602060002090601f016020900481019282611845576000855561188c565b82601f1061185e57805160ff191683800117855561188c565b8280016001018555821561188c579182015b8281111561188b578251825591602001919060010190611870565b5b509050611899919061189d565b5090565b5b808211156118b657600081600090555060010161189e565b5090565b6000604051905090565b600080fd5b600080fd5b600073ffffffffffffffffffffffffffffffffffffffff82169050919050565b60006118f9826118ce565b9050919050565b611909816118ee565b811461191457600080fd5b50565b60008135905061192681611900565b92915050565b600080fd5b600080fd5b6000601f19601f8301169050919050565b7f4e487b7100000000000000000000000000000000000000000000000000000000600052604160045260246000fd5b61197f82611936565b810181811067ffffffffffffffff8211171561199e5761199d611947565b5b80604052505050565b60006119b16118ba565b90506119bd8282611976565b919050565b600067ffffffffffffffff8211156119dd576119dc611947565b5b6119e682611936565b9050602081019050919050565b82818337600083830152505050565b6000611a15611a10846119c2565b6119a7565b905082815260208101848484011115611a3157611a30611931565b5b611a3c8482856119f3565b509392505050565b600082601f830112611a5957611a5861192c565b5b8135611a69848260208601611a02565b91505092915050565b60008060008060808587031215611a8c57611a8b6118c4565b5b6000611a9a87828801611917565b945050602085013567ffffffffffffffff811115611abb57611aba6118c9565b5b611ac787828801611a44565b935050604085013567ffffffffffffffff811115611ae857611ae76118c9565b5b611af487828801611a44565b925050606085013567ffffffffffffffff811115611b1557611b146118c9565b5b611b2187828801611a44565b91505092959194509250565b600060208284031215611b4357611b426118c4565b5b6000611b5184828501611917565b91505092915050565b6000819050919050565b611b6d81611b5a565b82525050565b600081519050919050565b600082825260208201905092915050565b60005b83811015611bad578082015181840152602081019050611b92565b83811115611bbc576000848401525b50505050565b6000611bcd82611b73565b611bd78185611b7e565b9350611be7818560208601611b8f565b611bf081611936565b840191505092915050565b611c04816118ee565b82525050565b60008115159050919050565b611c1f81611c0a565b82525050565b600060e082019050611c3a600083018a611b64565b8181036020830152611c4c8189611bc2565b90508181036040830152611c608188611bc2565b9050611c6f6060830187611bfb565b611c7c6080830186611c16565b611c8960a0830185611b64565b81810360c0830152611c9b8184611bc2565b905098975050505050505050565b600081519050919050565b600082825260208201905092915050565b6000819050602082019050919050565b611cde816118ee565b82525050565b6000611cf08383611cd5565b60208301905092915050565b6000602082019050919050565b6000611d1482611ca9565b611d1e8185611cb4565b9350611d2983611cc5565b8060005b83811015611d5a578151611d418882611ce4565b9750611d4c83611cfc565b925050600181019050611d2d565b5085935050505092915050565b60006020820190508181036000830152611d818184611d09565b905092915050565b600060e0820190508181036000830152611da3818a611bc2565b90508181036020830152611db78189611bc2565b9050611dc66040830188611b64565b611dd36060830187611b64565b611de06080830186611b64565b81810360a0830152611df28185611bc2565b9050611e0160c0830184611bfb565b98975050505050505050565b611e1681611b5a565b8114611e2157600080fd5b50565b600081359050611e3381611e0d565b92915050565b60008060408385031215611e5057611e4f6118c4565b5b6000611e5e85828601611917565b9250506020611e6f85828601611e24565b9150509250929050565b600060208284031215611e8f57611e8e6118c4565b5b6000611e9d84828501611e24565b91505092915050565b6000602082019050611ebb6000830184611bfb565b92915050565b6000602082019050611ed66000830184611b64565b92915050565b600080600080600060a08688031215611ef857611ef76118c4565b5b6000611f0688828901611917565b955050602086013567ffffffffffffffff811115611f2757611f266118c9565b5b611f3388828901611a44565b9450506040611f4488828901611e24565b935050606086013567ffffffffffffffff811115611f6557611f646118c9565b5b611f7188828901611a44565b925050608086013567ffffffffffffffff811115611f9257611f916118c9565b5b611f9e88828901611a44565b9150509295509295909350565b600061010082019050611fc1600083018b611b64565b8181036020830152611fd3818a611bc2565b90508181036040830152611fe78189611bc2565b9050611ff66060830188611bfb565b6120036080830187611b64565b61201060a0830186611c16565b61201d60c0830185611b64565b81810360e083015261202f8184611bc2565b90509998505050505050505050565b600060e082019050612053600083018a611b64565b6120606020830189611b64565b81810360408301526120728188611bc2565b905081810360608301526120868187611bc2565b90506120956080830186611b64565b6120a260a0830185611bfb565b81810360c08301526120b48184611bc2565b905098975050505050505050565b7f4f6e6c792061646d696e6e2063616e2063726561746520766f74657200000000600082015250565b60006120f8601c83611b7e565b9150612103826120c2565b602082019050919050565b60006020820190508181036000830152612127816120eb565b9050919050565b600060e0820190508181036000830152612148818a611bc2565b9050818103602083015261215c8189611bc2565b905061216b6040830188611bfb565b6121786060830187611b64565b6121856080830186611c16565b61219260a0830185611b64565b81810360c08301526121a48184611bc2565b905098975050505050505050565b7f4e487b7100000000000000000000000000000000000000000000000000000000600052602260045260246000fd5b600060028204905060018216806121f957607f821691505b6020821081141561220d5761220c6121b2565b5b50919050565b7f596f75206861766520616c726561647920766f74656400000000000000000000600082015250565b6000612249601683611b7e565b915061225482612213565b602082019050919050565b600060208201905081810360008301526122788161223c565b9050919050565b7f596f7520617265206e6f7420616c6c6f77656400000000000000000000000000600082015250565b60006122b5601383611b7e565b91506122c08261227f565b602082019050919050565b600060208201905081810360008301526122e4816122a8565b9050919050565b7f4e487b7100000000000000000000000000000000000000000000000000000000600052601160045260246000fd5b600061232582611b5a565b915061233083611b5a565b9250827fffffffffffffffffffffffffffffffffffffffffffffffffffffffffffffffff03821115612365576123646122eb565b5b828201905092915050565b7f4f6e6c79204f7267616e697a65722063616e207265676973746572207468652060008201527f63616e6469646174657300000000000000000000000000000000000000000000602082015250565b60006123cc602a83611b7e565b91506123d782612370565b604082019050919050565b600060208201905081810360008301526123fb816123bf565b9050919050565b600060c0820190506124176000830189611b64565b81810360208301526124298188611bc2565b9050818103604083015261243d8187611bc2565b905061244c6060830186611b64565b6124596080830185611bfb565b81810360a083015261246b8184611bc2565b905097965050505050505056fea264697066735822122066be152828392468b1d7cf2728adf1350be2c478736938daf3331f010f3b910464736f6c63430008090033",
  "linkReferences": {},
  "deployedLinkReferences": {}
}