{
  "_format": "hh-sol-artifact-1",
  "contractName": "Election",
  "sourceName": "contracts/VotingContract.sol",
  "abi": [
    {
      "inputs": [],
      "stateMutability": "nonpayable",
      "type": "constructor"
    },
    {
      "anonymous": false,
      "inputs": [
        {
          "indexed": true,
          "internalType": "uint256",
          "name": "candidateId",
          "type": "uint256"
        },
        {
          "indexed": false,
          "internalType": "uint256",
          "name": "age",
          "type": "uint256"
        },
        {
          "indexed": false,
          "internalType": "string",
          "name": "name",
          "type": "string"
        },
        {
          "indexed": false,
          "internalType": "string",
          "name": "image",
          "type": "string"
        },
        {
          "indexed": false,
          "internalType": "uint256",
          "name": "voteCount",
          "type": "uint256"
        },
        {
          "indexed": false,
          "internalType": "address",
          "name": "_address",
          "type": "address"
        },
        {
          "indexed": false,
          "internalType": "string",
          "name": "ipfs",
          "type": "string"
        }
      ],
      "name": "CandidateCreate",
      "type": "event"
    },
    {
      "anonymous": false,
      "inputs": [
        {
          "indexed": true,
          "internalType": "uint256",
          "name": "voter_voterId",
          "type": "uint256"
        },
        {
          "indexed": false,
          "internalType": "string",
          "name": "voter_name",
          "type": "string"
        },
        {
          "indexed": false,
          "internalType": "string",
          "name": "voter_image",
          "type": "string"
        },
        {
          "indexed": false,
          "internalType": "address",
          "name": "voter_address",
          "type": "address"
        },
        {
          "indexed": false,
          "internalType": "uint256",
          "name": "voter_allowed",
          "type": "uint256"
        },
        {
          "indexed": false,
          "internalType": "bool",
          "name": "voter_voted",
          "type": "bool"
        },
        {
          "indexed": false,
          "internalType": "uint256",
          "name": "voter_vote",
          "type": "uint256"
        },
        {
          "indexed": false,
          "internalType": "string",
          "name": "voter_ipfs",
          "type": "string"
        }
      ],
      "name": "VoterCreate",
      "type": "event"
    },
    {
      "inputs": [],
      "name": "_candidateId",
      "outputs": [
        {
          "internalType": "uint256",
          "name": "_value",
          "type": "uint256"
        }
      ],
      "stateMutability": "view",
      "type": "function"
    },
    {
      "inputs": [],
      "name": "_voterId",
      "outputs": [
        {
          "internalType": "uint256",
          "name": "_value",
          "type": "uint256"
        }
      ],
      "stateMutability": "view",
      "type": "function"
    },
    {
      "inputs": [
        {
          "internalType": "uint256",
          "name": "",
          "type": "uint256"
        }
      ],
      "name": "candidateAddress",
      "outputs": [
        {
          "internalType": "address",
          "name": "",
          "type": "address"
        }
      ],
      "stateMutability": "view",
      "type": "function"
    },
    {
      "inputs": [
        {
          "internalType": "address",
          "name": "",
          "type": "address"
        }
      ],
      "name": "candidatesRegister",
      "outputs": [
        {
          "internalType": "uint256",
          "name": "candidateId",
          "type": "uint256"
        },
        {
          "internalType": "uint256",
          "name": "age",
          "type": "uint256"
        },
        {
          "internalType": "string",
          "name": "name",
          "type": "string"
        },
        {
          "internalType": "string",
          "name": "image",
          "type": "string"
        },
        {
          "internalType": "uint256",
          "name": "voteCount",
          "type": "uint256"
        },
        {
          "internalType": "address",
          "name": "_address",
          "type": "address"
        },
        {
          "internalType": "string",
          "name": "ipfs",
          "type": "string"
        }
      ],
      "stateMutability": "view",
      "type": "function"
    },
    {
      "inputs": [
        {
          "internalType": "address",
          "name": "_candidateAddr",
          "type": "address"
        },
        {
          "internalType": "uint256",
          "name": "_candidatesId",
          "type": "uint256"
        }
      ],
      "name": "doVote",
      "outputs": [],
      "stateMutability": "nonpayable",
      "type": "function"
    },
    {
      "inputs": [
        {
          "internalType": "address",
          "name": "_address",
          "type": "address"
        }
      ],
      "name": "getCandidateData",
      "outputs": [
        {
          "internalType": "string",
          "name": "",
          "type": "string"
        },
        {
          "internalType": "string",
          "name": "",
          "type": "string"
        },
        {
          "internalType": "uint256",
          "name": "",
          "type": "uint256"
        },
        {
          "internalType": "uint256",
          "name": "",
          "type": "uint256"
        },
        {
          "internalType": "uint256",
          "name": "",
          "type": "uint256"
        },
        {
          "internalType": "string",
          "name": "",
          "type": "string"
        },
        {
          "internalType": "address",
          "name": "",
          "type": "address"
        }
      ],
      "stateMutability": "view",
      "type": "function"
    },
    {
      "inputs": [],
      "name": "getCandidateLength",
      "outputs": [
        {
          "internalType": "uint256",
          "name": "",
          "type": "uint256"
        }
      ],
      "stateMutability": "view",
      "type": "function"
    },
    {
      "inputs": [],
      "name": "getCandidates",
      "outputs": [
        {
          "internalType": "address[]",
          "name": "",
          "type": "address[]"
        }
      ],
      "stateMutability": "view",
      "type": "function"
    },
    {
      "inputs": [
        {
          "internalType": "address",
          "name": "_address",
          "type": "address"
        }
      ],
      "name": "getVoterDatea",
      "outputs": [
        {
          "internalType": "uint256",
          "name": "",
          "type": "uint256"
        },
        {
          "internalType": "string",
          "name": "",
          "type": "string"
        },
        {
          "internalType": "string",
          "name": "",
          "type": "string"
        },
        {
          "internalType": "address",
          "name": "",
          "type": "address"
        },
        {
          "internalType": "bool",
          "name": "",
          "type": "bool"
        },
        {
          "internalType": "uint256",
          "name": "",
          "type": "uint256"
        },
        {
          "internalType": "string",
          "name": "",
          "type": "string"
        }
      ],
      "stateMutability": "view",
      "type": "function"
    },
    {
      "inputs": [],
      "name": "getVoterList",
      "outputs": [
        {
          "internalType": "address[]",
          "name": "",
          "type": "address[]"
        }
      ],
      "stateMutability": "view",
      "type": "function"
    },
    {
      "inputs": [],
      "name": "getvoterLength",
      "outputs": [
        {
          "internalType": "uint256",
          "name": "",
          "type": "uint256"
        }
      ],
      "stateMutability": "view",
      "type": "function"
    },
    {
      "inputs": [
        {
          "internalType": "address",
          "name": "_address",
          "type": "address"
        },
        {
          "internalType": "string",
          "name": "_name",
          "type": "string"
        },
        {
          "internalType": "uint256",
          "name": "_age",
          "type": "uint256"
        },
        {
          "internalType": "string",
          "name": "_image",
          "type": "string"
        },
        {
          "internalType": "string",
          "name": "_ipfs",
          "type": "string"
        }
      ],
      "name": "setCandidate",
      "outputs": [],
      "stateMutability": "nonpayable",
      "type": "function"
    },
    {
      "inputs": [
        {
          "internalType": "address",
          "name": "_address",
          "type": "address"
        },
        {
          "internalType": "string",
          "name": "_name",
          "type": "string"
        },
        {
          "internalType": "string",
          "name": "_image",
          "type": "string"
        },
        {
          "internalType": "string",
          "name": "_ipfs",
          "type": "string"
        }
      ],
      "name": "setVoter",
      "outputs": [],
      "stateMutability": "nonpayable",
      "type": "function"
    },
    {
      "inputs": [
        {
          "internalType": "uint256",
          "name": "",
          "type": "uint256"
        }
      ],
      "name": "votedVoters",
      "outputs": [
        {
          "internalType": "address",
          "name": "",
          "type": "address"
        }
      ],
      "stateMutability": "view",
      "type": "function"
    },
    {
      "inputs": [
        {
          "internalType": "address",
          "name": "",
          "type": "address"
        }
      ],
      "name": "voterRegister",
      "outputs": [
        {
          "internalType": "uint256",
          "name": "voter_voterId",
          "type": "uint256"
        },
        {
          "internalType": "string",
          "name": "voter_name",
          "type": "string"
        },
        {
          "internalType": "string",
          "name": "voter_image",
          "type": "string"
        },
        {
          "internalType": "address",
          "name": "voter_address",
          "type": "address"
        },
        {
          "internalType": "uint256",
          "name": "voter_allowed",
          "type": "uint256"
        },
        {
          "internalType": "bool",
          "name": "voter_voted",
          "type": "bool"
        },
        {
          "internalType": "uint256",
          "name": "voter_vote",
          "type": "uint256"
        },
        {
          "internalType": "string",
          "name": "voter_ipfs",
          "type": "string"
        }
      ],
      "stateMutability": "view",
      "type": "function"
    },
    {
      "inputs": [
        {
          "internalType": "uint256",
          "name": "",
          "type": "uint256"
        }
      ],
      "name": "votersAddress",
      "outputs": [
        {
          "internalType": "address",
          "name": "",
          "type": "address"
        }
      ],
      "stateMutability": "view",
      "type": "function"
    },
    {
      "inputs": [],
      "name": "votingOrganizer",
      "outputs": [
        {
          "internalType": "address",
          "name": "",
          "type": "address"
        }
      ],
      "stateMutability": "view",
      "type": "function"
    }
  ],
  "bytecode": "0x608060405234801561001057600080fd5b5033600260006101000a81548173ffffffffffffffffffffffffffffffffffffffff021916908373ffffffffffffffffffffffffffffffffffffffff1602179055506124ae806100616000396000f3fe608060405234801561001057600080fd5b506004361061010b5760003560e01c80637831ffb3116100a2578063af15408711610071578063af154087146102d8578063b28d92ae1461030f578063b9be31521461032d578063f06831911461034b578063f7522a83146103815761010b565b80637831ffb31461025257806382aac8f314610282578063a73889671461029e578063aa092c48146102bc5761010b565b80633a88251a116100de5780633a88251a146101b657806343242daa146101e6578063568786b5146102165780635cc48aa7146102345761010b565b80630592c60b1461011057806306a49fce146101465780632a466ac7146101645780633a323e681461019a575b600080fd5b61012a6004803603810190610125919061192c565b61039f565b60405161013d9796959493929190611a35565b60405180910390f35b61014e610767565b60405161015b9190611b77565b60405180910390f35b61017e6004803603810190610179919061192c565b6107f5565b6040516101919796959493929190611b99565b60405180910390f35b6101b460048036038101906101af9190611c49565b610bb0565b005b6101d060048036038101906101cb9190611c89565b610d75565b6040516101dd9190611cb6565b60405180910390f35b61020060048036038101906101fb9190611c89565b610db4565b60405161020d9190611cb6565b60405180910390f35b61021e610df3565b60405161022b9190611cd1565b60405180910390f35b61023c610e00565b6040516102499190611cb6565b60405180910390f35b61026c60048036038101906102679190611c89565b610e26565b6040516102799190611cb6565b60405180910390f35b61029c60048036038101906102979190611e21565b610e65565b005b6102a66110f2565b6040516102b39190611cd1565b60405180910390f35b6102d660048036038101906102d19190611edc565b6110fe565b005b6102f260048036038101906102ed919061192c565b611345565b604051610306989796959493929190611fab565b60405180910390f35b610317611552565b6040516103249190611b77565b60405180910390f35b6103356115e0565b6040516103429190611cd1565b60405180910390f35b6103656004803603810190610360919061192c565b6115ec565b604051610378979695949392919061203e565b60405180910390f35b6103896117e6565b6040516103969190611cd1565b60405180910390f35b600060608060008060006060600760008973ffffffffffffffffffffffffffffffffffffffff1673ffffffffffffffffffffffffffffffffffffffff16815260200190815260200160002060000154600760008a73ffffffffffffffffffffffffffffffffffffffff1673ffffffffffffffffffffffffffffffffffffffff168152602001908152602001600020600101600760008b73ffffffffffffffffffffffffffffffffffffffff1673ffffffffffffffffffffffffffffffffffffffff168152602001908152602001600020600201600760008c73ffffffffffffffffffffffffffffffffffffffff1673ffffffffffffffffffffffffffffffffffffffff16815260200190815260200160002060030160009054906101000a900473ffffffffffffffffffffffffffffffffffffffff16600760008d73ffffffffffffffffffffffffffffffffffffffff1673ffffffffffffffffffffffffffffffffffffffff16815260200190815260200160002060050160009054906101000a900460ff16600760008e73ffffffffffffffffffffffffffffffffffffffff1673ffffffffffffffffffffffffffffffffffffffff16815260200190815260200160002060060154600760008f73ffffffffffffffffffffffffffffffffffffffff1673ffffffffffffffffffffffffffffffffffffffff1681526020019081526020016000206007018580546105b6906120f1565b80601f01602080910402602001604051908101604052809291908181526020018280546105e2906120f1565b801561062f5780601f106106045761010080835404028352916020019161062f565b820191906000526020600020905b81548152906001019060200180831161061257829003601f168201915b50505050509550848054610642906120f1565b80601f016020809104026020016040519081016040528092919081815260200182805461066e906120f1565b80156106bb5780601f10610690576101008083540402835291602001916106bb565b820191906000526020600020905b81548152906001019060200180831161069e57829003601f168201915b505050505094508080546106ce906120f1565b80601f01602080910402602001604051908101604052809291908181526020018280546106fa906120f1565b80156107475780601f1061071c57610100808354040283529160200191610747565b820191906000526020600020905b81548152906001019060200180831161072a57829003601f168201915b505050505090509650965096509650965096509650919395979092949650565b606060038054806020026020016040519081016040528092919081815260200182805480156107eb57602002820191906000526020600020905b8160009054906101000a900473ffffffffffffffffffffffffffffffffffffffff1673ffffffffffffffffffffffffffffffffffffffff16815260200190600101908083116107a1575b5050505050905090565b606080600080600060606000600460008973ffffffffffffffffffffffffffffffffffffffff1673ffffffffffffffffffffffffffffffffffffffff168152602001908152602001600020600201600460008a73ffffffffffffffffffffffffffffffffffffffff1673ffffffffffffffffffffffffffffffffffffffff168152602001908152602001600020600301600460008b73ffffffffffffffffffffffffffffffffffffffff1673ffffffffffffffffffffffffffffffffffffffff16815260200190815260200160002060040154600460008c73ffffffffffffffffffffffffffffffffffffffff1673ffffffffffffffffffffffffffffffffffffffff16815260200190815260200160002060010154600460008d73ffffffffffffffffffffffffffffffffffffffff1673ffffffffffffffffffffffffffffffffffffffff16815260200190815260200160002060000154600460008e73ffffffffffffffffffffffffffffffffffffffff1673ffffffffffffffffffffffffffffffffffffffff168152602001908152602001600020600601600460008f73ffffffffffffffffffffffffffffffffffffffff1673ffffffffffffffffffffffffffffffffffffffff16815260200190815260200160002060050160009054906101000a900473ffffffffffffffffffffffffffffffffffffffff168680546109ff906120f1565b80601f0160208091040260200160405190810160405280929190818152602001828054610a2b906120f1565b8015610a785780601f10610a4d57610100808354040283529160200191610a78565b820191906000526020600020905b815481529060010190602001808311610a5b57829003601f168201915b50505050509650858054610a8b906120f1565b80601f0160208091040260200160405190810160405280929190818152602001828054610ab7906120f1565b8015610b045780601f10610ad957610100808354040283529160200191610b04565b820191906000526020600020905b815481529060010190602001808311610ae757829003601f168201915b50505050509550818054610b17906120f1565b80601f0160208091040260200160405190810160405280929190818152602001828054610b43906120f1565b8015610b905780601f10610b6557610100808354040283529160200191610b90565b820191906000526020600020905b815481529060010190602001808311610b7357829003601f168201915b505050505091509650965096509650965096509650919395979092949650565b6000600760003373ffffffffffffffffffffffffffffffffffffffff1673ffffffffffffffffffffffffffffffffffffffff16815260200190815260200160002090508060050160009054906101000a900460ff1615610c45576040517f08c379a0000000000000000000000000000000000000000000000000000000008152600401610c3c9061216f565b60405180910390fd5b600081600401541415610c8d576040517f08c379a0000000000000000000000000000000000000000000000000000000008152600401610c84906121db565b60405180910390fd5b60018160050160006101000a81548160ff0219169083151502179055508181600601819055506005339080600181540180825580915050600190039060005260206000200160009091909190916101000a81548173ffffffffffffffffffffffffffffffffffffffff021916908373ffffffffffffffffffffffffffffffffffffffff1602179055506001600460008573ffffffffffffffffffffffffffffffffffffffff1673ffffffffffffffffffffffffffffffffffffffff1681526020019081526020016000206004016000828254610d69919061222a565b92505081905550505050565b60038181548110610d8557600080fd5b906000526020600020016000915054906101000a900473ffffffffffffffffffffffffffffffffffffffff1681565b60068181548110610dc457600080fd5b906000526020600020016000915054906101000a900473ffffffffffffffffffffffffffffffffffffffff1681565b6000600680549050905090565b600260009054906101000a900473ffffffffffffffffffffffffffffffffffffffff1681565b60058181548110610e3657600080fd5b906000526020600020016000915054906101000a900473ffffffffffffffffffffffffffffffffffffffff1681565b3373ffffffffffffffffffffffffffffffffffffffff16600260009054906101000a900473ffffffffffffffffffffffffffffffffffffffff1673ffffffffffffffffffffffffffffffffffffffff1614610ef5576040517f08c379a0000000000000000000000000000000000000000000000000000000008152600401610eec906122cc565b60405180910390fd5b610eff60006117f3565b6000610f0b6000611809565b90506000600760008773ffffffffffffffffffffffffffffffffffffffff1673ffffffffffffffffffffffffffffffffffffffff16815260200190815260200160002090506000816004015414610f6157600080fd5b858160030160006101000a81548173ffffffffffffffffffffffffffffffffffffffff021916908373ffffffffffffffffffffffffffffffffffffffff1602179055506001816004018190555083816002019080519060200190610fc6929190611817565b5082816007019080519060200190610fdf929190611817565b5084816001019080519060200190610ff8929190611817565b5060008160050160006101000a81548160ff0219169083151502179055508181600001819055506103e881600601819055506006869080600181540180825580915050600190039060005260206000200160009091909190916101000a81548173ffffffffffffffffffffffffffffffffffffffff021916908373ffffffffffffffffffffffffffffffffffffffff160217905550817f0d1b980df89c1a3954567752ee1e92bdf546b205af1cc94b471ae6e71b8f859c86868985600401548660050160009054906101000a900460ff1687600601548a6040516110e297969594939291906122ec565b60405180910390a2505050505050565b60018060000154905081565b3373ffffffffffffffffffffffffffffffffffffffff16600260009054906101000a900473ffffffffffffffffffffffffffffffffffffffff1673ffffffffffffffffffffffffffffffffffffffff161461118e576040517f08c379a0000000000000000000000000000000000000000000000000000000008152600401611185906123e2565b60405180910390fd5b61119860016117f3565b60006111a46001611809565b90506000600460008873ffffffffffffffffffffffffffffffffffffffff1673ffffffffffffffffffffffffffffffffffffffff16815260200190815260200160002090508481600101819055508581600201908051906020019061120a929190611817565b5083816003019080519060200190611223929190611817565b508281600601908051906020019061123c929190611817565b5081816000018190555060008160040181905550868160050160006101000a81548173ffffffffffffffffffffffffffffffffffffffff021916908373ffffffffffffffffffffffffffffffffffffffff1602179055506003879080600181540180825580915050600190039060005260206000200160009091909190916101000a81548173ffffffffffffffffffffffffffffffffffffffff021916908373ffffffffffffffffffffffffffffffffffffffff160217905550817fa0bb2859e614d6df5a180bd5c06e70c2f058288ebf559a5751e8865cda8654c986888785600401548c8960405161133496959493929190612402565b60405180910390a250505050505050565b600760205280600052604060002060009150905080600001549080600101805461136e906120f1565b80601f016020809104026020016040519081016040528092919081815260200182805461139a906120f1565b80156113e75780601f106113bc576101008083540402835291602001916113e7565b820191906000526020600020905b8154815290600101906020018083116113ca57829003601f168201915b5050505050908060020180546113fc906120f1565b80601f0160208091040260200160405190810160405280929190818152602001828054611428906120f1565b80156114755780601f1061144a57610100808354040283529160200191611475565b820191906000526020600020905b81548152906001019060200180831161145857829003601f168201915b5050505050908060030160009054906101000a900473ffffffffffffffffffffffffffffffffffffffff16908060040154908060050160009054906101000a900460ff16908060060154908060070180546114cf906120f1565b80601f01602080910402602001604051908101604052809291908181526020018280546114fb906120f1565b80156115485780601f1061151d57610100808354040283529160200191611548565b820191906000526020600020905b81548152906001019060200180831161152b57829003601f168201915b5050505050905088565b606060068054806020026020016040519081016040528092919081815260200182805480156115d657602002820191906000526020600020905b8160009054906101000a900473ffffffffffffffffffffffffffffffffffffffff1673ffffffffffffffffffffffffffffffffffffffff168152602001906001019080831161158c575b5050505050905090565b60008060000154905081565b600460205280600052604060002060009150905080600001549080600101549080600201805461161b906120f1565b80601f0160208091040260200160405190810160405280929190818152602001828054611647906120f1565b80156116945780601f1061166957610100808354040283529160200191611694565b820191906000526020600020905b81548152906001019060200180831161167757829003601f168201915b5050505050908060030180546116a9906120f1565b80601f01602080910402602001604051908101604052809291908181526020018280546116d5906120f1565b80156117225780601f106116f757610100808354040283529160200191611722565b820191906000526020600020905b81548152906001019060200180831161170557829003601f168201915b5050505050908060040154908060050160009054906101000a900473ffffffffffffffffffffffffffffffffffffffff1690806006018054611763906120f1565b80601f016020809104026020016040519081016040528092919081815260200182805461178f906120f1565b80156117dc5780601f106117b1576101008083540402835291602001916117dc565b820191906000526020600020905b8154815290600101906020018083116117bf57829003601f168201915b5050505050905087565b6000600380549050905090565b6001816000016000828254019250508190555050565b600081600001549050919050565b828054611823906120f1565b90600052602060002090601f016020900481019282611845576000855561188c565b82601f1061185e57805160ff191683800117855561188c565b8280016001018555821561188c579182015b8281111561188b578251825591602001919060010190611870565b5b509050611899919061189d565b5090565b5b808211156118b657600081600090555060010161189e565b5090565b6000604051905090565b600080fd5b600080fd5b600073ffffffffffffffffffffffffffffffffffffffff82169050919050565b60006118f9826118ce565b9050919050565b611909816118ee565b811461191457600080fd5b50565b60008135905061192681611900565b92915050565b600060208284031215611942576119416118c4565b5b600061195084828501611917565b91505092915050565b6000819050919050565b61196c81611959565b82525050565b600081519050919050565b600082825260208201905092915050565b60005b838110156119ac578082015181840152602081019050611991565b838111156119bb576000848401525b50505050565b6000601f19601f8301169050919050565b60006119dd82611972565b6119e7818561197d565b93506119f781856020860161198e565b611a00816119c1565b840191505092915050565b611a14816118ee565b82525050565b60008115159050919050565b611a2f81611a1a565b82525050565b600060e082019050611a4a600083018a611963565b8181036020830152611a5c81896119d2565b90508181036040830152611a7081886119d2565b9050611a7f6060830187611a0b565b611a8c6080830186611a26565b611a9960a0830185611963565b81810360c0830152611aab81846119d2565b905098975050505050505050565b600081519050919050565b600082825260208201905092915050565b6000819050602082019050919050565b611aee816118ee565b82525050565b6000611b008383611ae5565b60208301905092915050565b6000602082019050919050565b6000611b2482611ab9565b611b2e8185611ac4565b9350611b3983611ad5565b8060005b83811015611b6a578151611b518882611af4565b9750611b5c83611b0c565b925050600181019050611b3d565b5085935050505092915050565b60006020820190508181036000830152611b918184611b19565b905092915050565b600060e0820190508181036000830152611bb3818a6119d2565b90508181036020830152611bc781896119d2565b9050611bd66040830188611963565b611be36060830187611963565b611bf06080830186611963565b81810360a0830152611c0281856119d2565b9050611c1160c0830184611a0b565b98975050505050505050565b611c2681611959565b8114611c3157600080fd5b50565b600081359050611c4381611c1d565b92915050565b60008060408385031215611c6057611c5f6118c4565b5b6000611c6e85828601611917565b9250506020611c7f85828601611c34565b9150509250929050565b600060208284031215611c9f57611c9e6118c4565b5b6000611cad84828501611c34565b91505092915050565b6000602082019050611ccb6000830184611a0b565b92915050565b6000602082019050611ce66000830184611963565b92915050565b600080fd5b600080fd5b7f4e487b7100000000000000000000000000000000000000000000000000000000600052604160045260246000fd5b611d2e826119c1565b810181811067ffffffffffffffff82111715611d4d57611d4c611cf6565b5b80604052505050565b6000611d606118ba565b9050611d6c8282611d25565b919050565b600067ffffffffffffffff821115611d8c57611d8b611cf6565b5b611d95826119c1565b9050602081019050919050565b82818337600083830152505050565b6000611dc4611dbf84611d71565b611d56565b905082815260208101848484011115611de057611ddf611cf1565b5b611deb848285611da2565b509392505050565b600082601f830112611e0857611e07611cec565b5b8135611e18848260208601611db1565b91505092915050565b60008060008060808587031215611e3b57611e3a6118c4565b5b6000611e4987828801611917565b945050602085013567ffffffffffffffff811115611e6a57611e696118c9565b5b611e7687828801611df3565b935050604085013567ffffffffffffffff811115611e9757611e966118c9565b5b611ea387828801611df3565b925050606085013567ffffffffffffffff811115611ec457611ec36118c9565b5b611ed087828801611df3565b91505092959194509250565b600080600080600060a08688031215611ef857611ef76118c4565b5b6000611f0688828901611917565b955050602086013567ffffffffffffffff811115611f2757611f266118c9565b5b611f3388828901611df3565b9450506040611f4488828901611c34565b935050606086013567ffffffffffffffff811115611f6557611f646118c9565b5b611f7188828901611df3565b925050608086013567ffffffffffffffff811115611f9257611f916118c9565b5b611f9e88828901611df3565b9150509295509295909350565b600061010082019050611fc1600083018b611963565b8181036020830152611fd3818a6119d2565b90508181036040830152611fe781896119d2565b9050611ff66060830188611a0b565b6120036080830187611963565b61201060a0830186611a26565b61201d60c0830185611963565b81810360e083015261202f81846119d2565b90509998505050505050505050565b600060e082019050612053600083018a611963565b6120606020830189611963565b818103604083015261207281886119d2565b9050818103606083015261208681876119d2565b90506120956080830186611963565b6120a260a0830185611a0b565b81810360c08301526120b481846119d2565b905098975050505050505050565b7f4e487b7100000000000000000000000000000000000000000000000000000000600052602260045260246000fd5b6000600282049050600182168061210957607f821691505b6020821081141561211d5761211c6120c2565b5b50919050565b7f596f75206861766520616c726561647920766f74656400000000000000000000600082015250565b600061215960168361197d565b915061216482612123565b602082019050919050565b600060208201905081810360008301526121888161214c565b9050919050565b7f596f7520617265206e6f7420616c6c6f77656400000000000000000000000000600082015250565b60006121c560138361197d565b91506121d08261218f565b602082019050919050565b600060208201905081810360008301526121f4816121b8565b9050919050565b7f4e487b7100000000000000000000000000000000000000000000000000000000600052601160045260246000fd5b600061223582611959565b915061224083611959565b9250827fffffffffffffffffffffffffffffffffffffffffffffffffffffffffffffffff03821115612275576122746121fb565b5b828201905092915050565b7f4f6e6c792061646d696e6e2063616e2063726561746520766f74657200000000600082015250565b60006122b6601c8361197d565b91506122c182612280565b602082019050919050565b600060208201905081810360008301526122e5816122a9565b9050919050565b600060e0820190508181036000830152612306818a6119d2565b9050818103602083015261231a81896119d2565b90506123296040830188611a0b565b6123366060830187611963565b6123436080830186611a26565b61235060a0830185611963565b81810360c083015261236281846119d2565b905098975050505050505050565b7f4f6e6c79204f7267616e697a65722063616e207265676973746572207468652060008201527f63616e6469646174657300000000000000000000000000000000000000000000602082015250565b60006123cc602a8361197d565b91506123d782612370565b604082019050919050565b600060208201905081810360008301526123fb816123bf565b9050919050565b600060c0820190506124176000830189611963565b818103602083015261242981886119d2565b9050818103604083015261243d81876119d2565b905061244c6060830186611963565b6124596080830185611a0b565b81810360a083015261246b81846119d2565b905097965050505050505056fea2646970667358221220b0968ab75fbdd851acbc469898e80899eb44c33cd29578ad7fcf4c9966e5bc9564736f6c63430008090033",
  "linkReferences": {},
  "deployedLinkReferences": {}
}